{
  "_format": "hh-sol-artifact-1",
  "contractName": "CrowdFund",
  "sourceName": "contracts/CrowdFund.sol",
  "abi": [
    {
      "inputs": [],
      "stateMutability": "nonpayable",
      "type": "constructor"
    },
    {
      "anonymous": false,
      "inputs": [
        {
          "indexed": false,
          "internalType": "uint256",
          "name": "id",
          "type": "uint256"
        }
      ],
      "name": "Cancel",
      "type": "event"
    },
    {
      "anonymous": false,
      "inputs": [
        {
          "indexed": false,
          "internalType": "uint256",
          "name": "id",
          "type": "uint256"
        }
      ],
      "name": "Claim",
      "type": "event"
    },
    {
      "anonymous": false,
      "inputs": [
        {
          "indexed": false,
          "internalType": "uint256",
          "name": "id",
          "type": "uint256"
        },
        {
          "indexed": true,
          "internalType": "address",
          "name": "creator",
          "type": "address"
        },
        {
          "indexed": false,
          "internalType": "uint256",
          "name": "goal",
          "type": "uint256"
        },
        {
          "indexed": false,
          "internalType": "uint32",
          "name": "startAt",
          "type": "uint32"
        },
        {
          "indexed": false,
          "internalType": "uint32",
          "name": "endAt",
          "type": "uint32"
        }
      ],
      "name": "Launch",
      "type": "event"
    },
    {
      "anonymous": false,
      "inputs": [
        {
          "indexed": true,
          "internalType": "uint256",
          "name": "id",
          "type": "uint256"
        },
        {
          "indexed": true,
          "internalType": "address",
          "name": "caller",
          "type": "address"
        },
        {
          "indexed": false,
          "internalType": "uint256",
          "name": "amount",
          "type": "uint256"
        }
      ],
      "name": "Pledge",
      "type": "event"
    },
    {
      "anonymous": false,
      "inputs": [
        {
          "indexed": false,
          "internalType": "uint256",
          "name": "id",
          "type": "uint256"
        },
        {
          "indexed": true,
          "internalType": "address",
          "name": "caller",
          "type": "address"
        },
        {
          "indexed": false,
          "internalType": "uint256",
          "name": "amount",
          "type": "uint256"
        }
      ],
      "name": "Refund",
      "type": "event"
    },
    {
      "anonymous": false,
      "inputs": [
        {
          "indexed": true,
          "internalType": "uint256",
          "name": "id",
          "type": "uint256"
        },
        {
          "indexed": true,
          "internalType": "address",
          "name": "caller",
          "type": "address"
        },
        {
          "indexed": false,
          "internalType": "uint256",
          "name": "amount",
          "type": "uint256"
        }
      ],
      "name": "Unpledge",
      "type": "event"
    },
    {
      "inputs": [
        {
          "internalType": "uint256",
          "name": "",
          "type": "uint256"
        }
      ],
      "name": "campaigns",
      "outputs": [
        {
          "internalType": "address",
          "name": "creator",
          "type": "address"
        },
        {
          "internalType": "uint256",
          "name": "goal",
          "type": "uint256"
        },
        {
          "internalType": "uint256",
          "name": "pledged",
          "type": "uint256"
        },
        {
          "internalType": "uint32",
          "name": "startAt",
          "type": "uint32"
        },
        {
          "internalType": "uint32",
          "name": "endAt",
          "type": "uint32"
        },
        {
          "internalType": "bool",
          "name": "claimed",
          "type": "bool"
        }
      ],
      "stateMutability": "view",
      "type": "function"
    },
    {
      "inputs": [
        {
          "internalType": "uint256",
          "name": "_id",
          "type": "uint256"
        }
      ],
      "name": "cancel",
      "outputs": [],
      "stateMutability": "nonpayable",
      "type": "function"
    },
    {
      "inputs": [
        {
          "internalType": "uint256",
          "name": "_id",
          "type": "uint256"
        }
      ],
      "name": "claim",
      "outputs": [],
      "stateMutability": "nonpayable",
      "type": "function"
    },
    {
      "inputs": [],
      "name": "count",
      "outputs": [
        {
          "internalType": "uint256",
          "name": "",
          "type": "uint256"
        }
      ],
      "stateMutability": "view",
      "type": "function"
    },
    {
      "inputs": [
        {
          "internalType": "uint256",
          "name": "_id",
          "type": "uint256"
        }
      ],
      "name": "getCampaign",
      "outputs": [
        {
          "internalType": "address",
          "name": "creator",
          "type": "address"
        },
        {
          "internalType": "uint256",
          "name": "goal",
          "type": "uint256"
        },
        {
          "internalType": "uint256",
          "name": "pledged",
          "type": "uint256"
        },
        {
          "internalType": "uint32",
          "name": "startAt",
          "type": "uint32"
        },
        {
          "internalType": "uint32",
          "name": "endAt",
          "type": "uint32"
        },
        {
          "internalType": "bool",
          "name": "claimed",
          "type": "bool"
        }
      ],
      "stateMutability": "view",
      "type": "function"
    },
    {
      "inputs": [
        {
          "internalType": "uint256",
          "name": "_goal",
          "type": "uint256"
        },
        {
          "internalType": "uint32",
          "name": "_startAt",
          "type": "uint32"
        },
        {
          "internalType": "uint32",
          "name": "_endAt",
          "type": "uint32"
        }
      ],
      "name": "launch",
      "outputs": [],
      "stateMutability": "nonpayable",
      "type": "function"
    },
    {
      "inputs": [
        {
          "internalType": "uint256",
          "name": "_id",
          "type": "uint256"
        }
      ],
      "name": "pledge",
      "outputs": [],
      "stateMutability": "payable",
      "type": "function"
    },
    {
      "inputs": [
        {
          "internalType": "uint256",
          "name": "",
          "type": "uint256"
        },
        {
          "internalType": "address",
          "name": "",
          "type": "address"
        }
      ],
      "name": "pledgedAmount",
      "outputs": [
        {
          "internalType": "uint256",
          "name": "",
          "type": "uint256"
        }
      ],
      "stateMutability": "view",
      "type": "function"
    },
    {
      "inputs": [
        {
          "internalType": "uint256",
          "name": "_id",
          "type": "uint256"
        }
      ],
      "name": "refund",
      "outputs": [],
      "stateMutability": "nonpayable",
      "type": "function"
    },
    {
      "inputs": [
        {
          "internalType": "uint256",
          "name": "_id",
          "type": "uint256"
        },
        {
          "internalType": "uint256",
          "name": "_amount",
          "type": "uint256"
        }
      ],
      "name": "unpledge",
      "outputs": [],
      "stateMutability": "nonpayable",
      "type": "function"
    }
  ],
  "bytecode": "0x608060405234801561001057600080fd5b50611b5a806100206000396000f3fe6080604052600436106100915760003560e01c806340e58ee51161005957806340e58ee51461017e5780635598f8cc146101a7578063711853ab146101e95780637326c9c014610212578063aa4fb63a1461022e57610091565b806306661abd14610096578063141961bc146100c1578063278ecde1146101035780632c63f1461461012c578063379607f514610155575b600080fd5b3480156100a257600080fd5b506100ab61026b565b6040516100b89190611258565b60405180910390f35b3480156100cd57600080fd5b506100e860048036038101906100e391906112a4565b610271565b6040516100fa9695949392919061134c565b60405180910390f35b34801561010f57600080fd5b5061012a600480360381019061012591906112a4565b6102fa565b005b34801561013857600080fd5b50610153600480360381019061014e91906113d9565b6105ca565b005b34801561016157600080fd5b5061017c600480360381019061017791906112a4565b610860565b005b34801561018a57600080fd5b506101a560048036038101906101a091906112a4565b610aa5565b005b3480156101b357600080fd5b506101ce60048036038101906101c991906112a4565b610d20565b6040516101e09695949392919061134c565b60405180910390f35b3480156101f557600080fd5b50610210600480360381019061020b919061142c565b610e50565b005b61022c600480360381019061022791906112a4565b611074565b005b34801561023a57600080fd5b5061025560048036038101906102509190611498565b61121a565b6040516102629190611258565b60405180910390f35b60005481565b60016020528060005260406000206000915090508060000160009054906101000a900473ffffffffffffffffffffffffffffffffffffffff16908060010154908060020154908060030160009054906101000a900463ffffffff16908060030160049054906101000a900463ffffffff16908060030160089054906101000a900460ff16905086565b6000600160008381526020019081526020016000206040518060c00160405290816000820160009054906101000a900473ffffffffffffffffffffffffffffffffffffffff1673ffffffffffffffffffffffffffffffffffffffff1673ffffffffffffffffffffffffffffffffffffffff16815260200160018201548152602001600282015481526020016003820160009054906101000a900463ffffffff1663ffffffff1663ffffffff1681526020016003820160049054906101000a900463ffffffff1663ffffffff1663ffffffff1681526020016003820160089054906101000a900460ff1615151515815250509050806080015163ffffffff164211610439576040517f08c379a000000000000000000000000000000000000000000000000000000000815260040161043090611535565b60405180910390fd5b8060200151816040015110610483576040517f08c379a000000000000000000000000000000000000000000000000000000000815260040161047a906115a1565b60405180910390fd5b60006002600084815260200190815260200160002060003373ffffffffffffffffffffffffffffffffffffffff1673ffffffffffffffffffffffffffffffffffffffff16815260200190815260200160002054905060006002600085815260200190815260200160002060003373ffffffffffffffffffffffffffffffffffffffff1673ffffffffffffffffffffffffffffffffffffffff168152602001908152602001600020819055503373ffffffffffffffffffffffffffffffffffffffff166108fc829081150290604051600060405180830381858888f19350505050158015610574573d6000803e3d6000fd5b503373ffffffffffffffffffffffffffffffffffffffff167f21e12a7cad0da5928167e1084ea4d5fdf8d9af66657a2543a9ac76a0ca08147784836040516105bd9291906115c1565b60405180910390a2505050565b428263ffffffff161015610613576040517f08c379a000000000000000000000000000000000000000000000000000000000815260040161060a90611636565b60405180910390fd5b8163ffffffff168163ffffffff161015610662576040517f08c379a0000000000000000000000000000000000000000000000000000000008152600401610659906116a2565b60405180910390fd5b6276a7004261067191906116f1565b8163ffffffff1611156106b9576040517f08c379a00000000000000000000000000000000000000000000000000000000081526004016106b090611771565b60405180910390fd5b60016000808282546106cb91906116f1565b925050819055506040518060c001604052803373ffffffffffffffffffffffffffffffffffffffff168152602001848152602001600081526020018363ffffffff1681526020018263ffffffff16815260200160001515815250600160008054815260200190815260200160002060008201518160000160006101000a81548173ffffffffffffffffffffffffffffffffffffffff021916908373ffffffffffffffffffffffffffffffffffffffff160217905550602082015181600101556040820151816002015560608201518160030160006101000a81548163ffffffff021916908363ffffffff16021790555060808201518160030160046101000a81548163ffffffff021916908363ffffffff16021790555060a08201518160030160086101000a81548160ff0219169083151502179055509050503373ffffffffffffffffffffffffffffffffffffffff167f0601cd0d650b473037e838a2696d41e654433d065b3f56b28d1d3302e44a304f6000548585856040516108539493929190611791565b60405180910390a2505050565b60006001600083815260200190815260200160002090503373ffffffffffffffffffffffffffffffffffffffff168160000160009054906101000a900473ffffffffffffffffffffffffffffffffffffffff1673ffffffffffffffffffffffffffffffffffffffff1614610909576040517f08c379a000000000000000000000000000000000000000000000000000000000815260040161090090611822565b60405180910390fd5b8060030160049054906101000a900463ffffffff1663ffffffff164211610965576040517f08c379a000000000000000000000000000000000000000000000000000000000815260040161095c90611535565b60405180910390fd5b8060010154816002015410156109b0576040517f08c379a00000000000000000000000000000000000000000000000000000000081526004016109a79061188e565b60405180910390fd5b8060030160089054906101000a900460ff1615610a02576040517f08c379a00000000000000000000000000000000000000000000000000000000081526004016109f9906118fa565b60405180910390fd5b60018160030160086101000a81548160ff0219169083151502179055503373ffffffffffffffffffffffffffffffffffffffff166108fc82600201549081150290604051600060405180830381858888f19350505050158015610a69573d6000803e3d6000fd5b507f7bb2b3c10797baccb6f8c4791f1edd6ca2f0d028ee0eda64b01a9a57e3a653f782604051610a999190611258565b60405180910390a15050565b6000600160008381526020019081526020016000206040518060c00160405290816000820160009054906101000a900473ffffffffffffffffffffffffffffffffffffffff1673ffffffffffffffffffffffffffffffffffffffff1673ffffffffffffffffffffffffffffffffffffffff16815260200160018201548152602001600282015481526020016003820160009054906101000a900463ffffffff1663ffffffff1663ffffffff1681526020016003820160049054906101000a900463ffffffff1663ffffffff1663ffffffff1681526020016003820160089054906101000a900460ff16151515158152505090503373ffffffffffffffffffffffffffffffffffffffff16816000015173ffffffffffffffffffffffffffffffffffffffff1614610c0a576040517f08c379a0000000000000000000000000000000000000000000000000000000008152600401610c0190611822565b60405180910390fd5b806060015163ffffffff164210610c56576040517f08c379a0000000000000000000000000000000000000000000000000000000008152600401610c4d90611966565b60405180910390fd5b60016000838152602001908152602001600020600080820160006101000a81549073ffffffffffffffffffffffffffffffffffffffff0219169055600182016000905560028201600090556003820160006101000a81549063ffffffff02191690556003820160046101000a81549063ffffffff02191690556003820160086101000a81549060ff021916905550507f8bf30e7ff26833413be5f69e1d373744864d600b664204b4a2f9844a8eedb9ed82604051610d149190611258565b60405180910390a15050565b6000806000806000806000600160008981526020019081526020016000206040518060c00160405290816000820160009054906101000a900473ffffffffffffffffffffffffffffffffffffffff1673ffffffffffffffffffffffffffffffffffffffff1673ffffffffffffffffffffffffffffffffffffffff16815260200160018201548152602001600282015481526020016003820160009054906101000a900463ffffffff1663ffffffff1663ffffffff1681526020016003820160049054906101000a900463ffffffff1663ffffffff1663ffffffff1681526020016003820160089054906101000a900460ff1615151515815250509050806000015181602001518260400151836060015184608001518560a001519650965096509650965096505091939550919395565b60006001600084815260200190815260200160002090508060030160049054906101000a900463ffffffff1663ffffffff16421115610ec4576040517f08c379a0000000000000000000000000000000000000000000000000000000008152600401610ebb906119d2565b60405180910390fd5b816002600085815260200190815260200160002060003373ffffffffffffffffffffffffffffffffffffffff1673ffffffffffffffffffffffffffffffffffffffff168152602001908152602001600020541015610f57576040517f08c379a0000000000000000000000000000000000000000000000000000000008152600401610f4e90611a64565b60405180910390fd5b81816002016000828254610f6b9190611a84565b92505081905550816002600085815260200190815260200160002060003373ffffffffffffffffffffffffffffffffffffffff1673ffffffffffffffffffffffffffffffffffffffff1681526020019081526020016000206000828254610fd29190611a84565b925050819055503373ffffffffffffffffffffffffffffffffffffffff166108fc839081150290604051600060405180830381858888f1935050505015801561101f573d6000803e3d6000fd5b503373ffffffffffffffffffffffffffffffffffffffff16837f2eeeab891b26a214d1b25749f88a406bdea852bd8c9bfda977e0ef8114c180ba846040516110679190611258565b60405180910390a3505050565b60006001600083815260200190815260200160002090508060030160009054906101000a900463ffffffff1663ffffffff164210156110e8576040517f08c379a00000000000000000000000000000000000000000000000000000000081526004016110df90611b04565b60405180910390fd5b8060030160049054906101000a900463ffffffff1663ffffffff16421115611145576040517f08c379a000000000000000000000000000000000000000000000000000000000815260040161113c906119d2565b60405180910390fd5b3481600201600082825461115991906116f1565b92505081905550346002600084815260200190815260200160002060003373ffffffffffffffffffffffffffffffffffffffff1673ffffffffffffffffffffffffffffffffffffffff16815260200190815260200160002060008282546111c091906116f1565b925050819055503373ffffffffffffffffffffffffffffffffffffffff16827f06bdb975df800a73232998e71ed585d536222f1dfeaa622d7f62a23ada686c823460405161120e9190611258565b60405180910390a35050565b6002602052816000526040600020602052806000526040600020600091509150505481565b6000819050919050565b6112528161123f565b82525050565b600060208201905061126d6000830184611249565b92915050565b600080fd5b6112818161123f565b811461128c57600080fd5b50565b60008135905061129e81611278565b92915050565b6000602082840312156112ba576112b9611273565b5b60006112c88482850161128f565b91505092915050565b600073ffffffffffffffffffffffffffffffffffffffff82169050919050565b60006112fc826112d1565b9050919050565b61130c816112f1565b82525050565b600063ffffffff82169050919050565b61132b81611312565b82525050565b60008115159050919050565b61134681611331565b82525050565b600060c0820190506113616000830189611303565b61136e6020830188611249565b61137b6040830187611249565b6113886060830186611322565b6113956080830185611322565b6113a260a083018461133d565b979650505050505050565b6113b681611312565b81146113c157600080fd5b50565b6000813590506113d3816113ad565b92915050565b6000806000606084860312156113f2576113f1611273565b5b60006114008682870161128f565b9350506020611411868287016113c4565b9250506040611422868287016113c4565b9150509250925092565b6000806040838503121561144357611442611273565b5b60006114518582860161128f565b92505060206114628582860161128f565b9150509250929050565b611475816112f1565b811461148057600080fd5b50565b6000813590506114928161146c565b92915050565b600080604083850312156114af576114ae611273565b5b60006114bd8582860161128f565b92505060206114ce85828601611483565b9150509250929050565b600082825260208201905092915050565b7f6e6f7420656e6465640000000000000000000000000000000000000000000000600082015250565b600061151f6009836114d8565b915061152a826114e9565b602082019050919050565b6000602082019050818103600083015261154e81611512565b9050919050565b7f706c6564676564203e3d20676f616c0000000000000000000000000000000000600082015250565b600061158b600f836114d8565b915061159682611555565b602082019050919050565b600060208201905081810360008301526115ba8161157e565b9050919050565b60006040820190506115d66000830185611249565b6115e36020830184611249565b9392505050565b7f7374617274206174203c206e6f77000000000000000000000000000000000000600082015250565b6000611620600e836114d8565b915061162b826115ea565b602082019050919050565b6000602082019050818103600083015261164f81611613565b9050919050565b7f656e64206174203c207374617274206174000000000000000000000000000000600082015250565b600061168c6011836114d8565b915061169782611656565b602082019050919050565b600060208201905081810360008301526116bb8161167f565b9050919050565b7f4e487b7100000000000000000000000000000000000000000000000000000000600052601160045260246000fd5b60006116fc8261123f565b91506117078361123f565b925082820190508082111561171f5761171e6116c2565b5b92915050565b7f656e64206174203e206d6178206475726174696f6e0000000000000000000000600082015250565b600061175b6015836114d8565b915061176682611725565b602082019050919050565b6000602082019050818103600083015261178a8161174e565b9050919050565b60006080820190506117a66000830187611249565b6117b36020830186611249565b6117c06040830185611322565b6117cd6060830184611322565b95945050505050565b7f6e6f742063726561746f72000000000000000000000000000000000000000000600082015250565b600061180c600b836114d8565b9150611817826117d6565b602082019050919050565b6000602082019050818103600083015261183b816117ff565b9050919050565b7f706c6564676564203c20676f616c000000000000000000000000000000000000600082015250565b6000611878600e836114d8565b915061188382611842565b602082019050919050565b600060208201905081810360008301526118a78161186b565b9050919050565b7f636c61696d656400000000000000000000000000000000000000000000000000600082015250565b60006118e46007836114d8565b91506118ef826118ae565b602082019050919050565b60006020820190508181036000830152611913816118d7565b9050919050565b7f7374617274656400000000000000000000000000000000000000000000000000600082015250565b60006119506007836114d8565b915061195b8261191a565b602082019050919050565b6000602082019050818103600083015261197f81611943565b9050919050565b7f656e646564000000000000000000000000000000000000000000000000000000600082015250565b60006119bc6005836114d8565b91506119c782611986565b602082019050919050565b600060208201905081810360008301526119eb816119af565b9050919050565b7f63616e6e6f7420756e706c65646765206d6f7265207468616e20706c6564676560008201527f6420616d6f756e74000000000000000000000000000000000000000000000000602082015250565b6000611a4e6028836114d8565b9150611a59826119f2565b604082019050919050565b60006020820190508181036000830152611a7d81611a41565b9050919050565b6000611a8f8261123f565b9150611a9a8361123f565b9250828203905081811115611ab257611ab16116c2565b5b92915050565b7f6e6f742073746172746564000000000000000000000000000000000000000000600082015250565b6000611aee600b836114d8565b9150611af982611ab8565b602082019050919050565b60006020820190508181036000830152611b1d81611ae1565b905091905056fea264697066735822122052b4af7fda478ba086ba38c6b664c9967fb48cdef8feec1d300009600b4ae9c964736f6c63430008120033",
  "linkReferences": {},
  "deployedLinkReferences": {}
}